{
  "transactions": [
    {
      "hash": "0x6ac3609fa96158ded36dd5901c8c065046d5aaa194dbad0813e8555f6048dd5a",
      "transactionType": "CALL",
      "contractName": null,
      "contractAddress": "0x5958786f1ea187531a423bc960718564a45f48c0",
      "function": "modifyLiquidity((address,address,uint24,int24,address),(int24,int24,int256,bytes32))",
      "arguments": [
        "(0x0000000000000000000000000000000000000000, 0xaf88d065e77c8cC2239327C5EDb3A432268e5831, 3000, 50, 0x5958786F1ea187531a423bC960718564A45f48c0)",
        "(-193750, -193500, 4998107956138, 0x0000000000000000000000000000000000000000000000000000000000000004)"
      ],
      "transaction": {
        "from": "0xa14bb91455e3b70d2d4f59a0d3cbf35d939308fc",
        "to": "0x5958786f1ea187531a423bc960718564a45f48c0",
        "gas": "0x1b8893",
        "value": "0x2205503660165",
        "input": "0xcf4bac770000000000000000000000000000000000000000000000000000000000000000000000000000000000000000af88d065e77c8cc2239327c5edb3a432268e58310000000000000000000000000000000000000000000000000000000000000bb800000000000000000000000000000000000000000000000000000000000000320000000000000000000000005958786f1ea187531a423bc960718564a45f48c0fffffffffffffffffffffffffffffffffffffffffffffffffffffffffffd0b2afffffffffffffffffffffffffffffffffffffffffffffffffffffffffffd0c240000000000000000000000000000000000000000000000000000048bb67303aa0000000000000000000000000000000000000000000000000000000000000004",
        "nonce": "0xb4",
        "chainId": "0xa4b1"
      },
      "additionalContracts": [],
      "isFixedGasLimit": false
    }
  ],
  "receipts": [
    {
      "status": "0x1",
      "cumulativeGasUsed": "0x1e8a1c",
      "logs": [
        {
          "address": "0x82af49447d8a07e3bd95bd0d56f35241523fbab1",
          "topics": [
            "0xddf252ad1be2c89b69c2b068fc378daa952ba7f163c4a11628f55a4df523b3ef",
            "0x0000000000000000000000000000000000000000000000000000000000000000",
            "0x0000000000000000000000005958786f1ea187531a423bc960718564a45f48c0"
          ],
          "data": "0x000000000000000000000000000000000000000000000000000881540d980593",
          "blockHash": "0xeab067dfa4108a0c9b159c5ccf60936362ed1978a3525ac95a0d886f0a1c1d74",
          "blockNumber": "0x16d727a2",
          "transactionHash": "0x6ac3609fa96158ded36dd5901c8c065046d5aaa194dbad0813e8555f6048dd5a",
          "transactionIndex": "0x5",
          "logIndex": "0xe",
          "removed": false
        },
        {
          "address": "0xaf88d065e77c8cc2239327c5edb3a432268e5831",
          "topics": [
            "0xddf252ad1be2c89b69c2b068fc378daa952ba7f163c4a11628f55a4df523b3ef",
            "0x000000000000000000000000360e68faccca8ca495c1b759fd9eee466db9fb32",
            "0x0000000000000000000000005958786f1ea187531a423bc960718564a45f48c0"
          ],
          "data": "0x00000000000000000000000000000000000000000000000000000000005eee0a",
          "blockHash": "0xeab067dfa4108a0c9b159c5ccf60936362ed1978a3525ac95a0d886f0a1c1d74",
          "blockNumber": "0x16d727a2",
          "transactionHash": "0x6ac3609fa96158ded36dd5901c8c065046d5aaa194dbad0813e8555f6048dd5a",
          "transactionIndex": "0x5",
          "logIndex": "0xf",
          "removed": false
        },
        {
          "address": "0x82af49447d8a07e3bd95bd0d56f35241523fbab1",
          "topics": [
            "0x8c5be1e5ebec7d5bd14f71427d1e84f3dd0314c0f7b2291e5b200ac8c7c3b925",
            "0x0000000000000000000000005958786f1ea187531a423bc960718564a45f48c0",
            "0x000000000000000000000000794a61358d6845594f94dc1db02a252b5b4814ad"
          ],
          "data": "0x000000000000000000000000000000000000000000000000000881540d980593",
          "blockHash": "0xeab067dfa4108a0c9b159c5ccf60936362ed1978a3525ac95a0d886f0a1c1d74",
          "blockNumber": "0x16d727a2",
          "transactionHash": "0x6ac3609fa96158ded36dd5901c8c065046d5aaa194dbad0813e8555f6048dd5a",
          "transactionIndex": "0x5",
          "logIndex": "0x10",
          "removed": false
        },
        {
          "address": "0x794a61358d6845594f94dc1db02a252b5b4814ad",
          "topics": [
            "0x804c9b842b2748a22bb64b345453a3de7ca54a6ca45ce00d415894979e22897a",
            "0x00000000000000000000000082af49447d8a07e3bd95bd0d56f35241523fbab1"
          ],
          "data": "0x0000000000000000000000000000000000000000000f6892cee0cdcfe2494d8300000000000000000000000000000000000000000000000000000000000000000000000000000000000000000000000000000000001495e9e1cf0f93476f3b98000000000000000000000000000000000000000003658d62299173b857ce7f750000000000000000000000000000000000000000038cd8bfdd1eee7b88f2c1d9",
          "blockHash": "0xeab067dfa4108a0c9b159c5ccf60936362ed1978a3525ac95a0d886f0a1c1d74",
          "blockNumber": "0x16d727a2",
          "transactionHash": "0x6ac3609fa96158ded36dd5901c8c065046d5aaa194dbad0813e8555f6048dd5a",
          "transactionIndex": "0x5",
          "logIndex": "0x11",
          "removed": false
        },
        {
          "address": "0x82af49447d8a07e3bd95bd0d56f35241523fbab1",
          "topics": [
            "0xddf252ad1be2c89b69c2b068fc378daa952ba7f163c4a11628f55a4df523b3ef",
            "0x0000000000000000000000005958786f1ea187531a423bc960718564a45f48c0",
            "0x000000000000000000000000e50fa9b3c56ffb159cb0fca61f5c9d750e8128c8"
          ],
          "data": "0x000000000000000000000000000000000000000000000000000881540d980593",
          "blockHash": "0xeab067dfa4108a0c9b159c5ccf60936362ed1978a3525ac95a0d886f0a1c1d74",
          "blockNumber": "0x16d727a2",
          "transactionHash": "0x6ac3609fa96158ded36dd5901c8c065046d5aaa194dbad0813e8555f6048dd5a",
          "transactionIndex": "0x5",
          "logIndex": "0x12",
          "removed": false
        },
        {
          "address": "0x82af49447d8a07e3bd95bd0d56f35241523fbab1",
          "topics": [
            "0x8c5be1e5ebec7d5bd14f71427d1e84f3dd0314c0f7b2291e5b200ac8c7c3b925",
            "0x0000000000000000000000005958786f1ea187531a423bc960718564a45f48c0",
            "0x000000000000000000000000794a61358d6845594f94dc1db02a252b5b4814ad"
          ],
          "data": "0x0000000000000000000000000000000000000000000000000000000000000000",
          "blockHash": "0xeab067dfa4108a0c9b159c5ccf60936362ed1978a3525ac95a0d886f0a1c1d74",
          "blockNumber": "0x16d727a2",
          "transactionHash": "0x6ac3609fa96158ded36dd5901c8c065046d5aaa194dbad0813e8555f6048dd5a",
          "transactionIndex": "0x5",
          "logIndex": "0x13",
          "removed": false
        },
        {
          "address": "0xe50fa9b3c56ffb159cb0fca61f5c9d750e8128c8",
          "topics": [
            "0xddf252ad1be2c89b69c2b068fc378daa952ba7f163c4a11628f55a4df523b3ef",
            "0x0000000000000000000000000000000000000000000000000000000000000000",
            "0x0000000000000000000000005958786f1ea187531a423bc960718564a45f48c0"
          ],
          "data": "0x000000000000000000000000000000000000000000000000000881540d980592",
          "blockHash": "0xeab067dfa4108a0c9b159c5ccf60936362ed1978a3525ac95a0d886f0a1c1d74",
          "blockNumber": "0x16d727a2",
          "transactionHash": "0x6ac3609fa96158ded36dd5901c8c065046d5aaa194dbad0813e8555f6048dd5a",
          "transactionIndex": "0x5",
          "logIndex": "0x14",
          "removed": false
        },
        {
          "address": "0xe50fa9b3c56ffb159cb0fca61f5c9d750e8128c8",
          "topics": [
            "0x458f5fa412d0f69b08dd84872b0215675cc67bc1d5b6fd93300a1c3878b86196",
            "0x0000000000000000000000005958786f1ea187531a423bc960718564a45f48c0",
            "0x0000000000000000000000005958786f1ea187531a423bc960718564a45f48c0"
          ],
          "data": "0x000000000000000000000000000000000000000000000000000881540d9805920000000000000000000000000000000000000000000000000000000000000000000000000000000000000000000000000000000003658d62299173b857ce7f75",
          "blockHash": "0xeab067dfa4108a0c9b159c5ccf60936362ed1978a3525ac95a0d886f0a1c1d74",
          "blockNumber": "0x16d727a2",
          "transactionHash": "0x6ac3609fa96158ded36dd5901c8c065046d5aaa194dbad0813e8555f6048dd5a",
          "transactionIndex": "0x5",
          "logIndex": "0x15",
          "removed": false
        },
        {
          "address": "0x794a61358d6845594f94dc1db02a252b5b4814ad",
          "topics": [
            "0x00058a56ea94653cdf4f152d227ace22d4c00ad99e2a43f58cb7d9e3feb295f2",
            "0x00000000000000000000000082af49447d8a07e3bd95bd0d56f35241523fbab1",
            "0x0000000000000000000000005958786f1ea187531a423bc960718564a45f48c0"
          ],
          "data": "0x",
          "blockHash": "0xeab067dfa4108a0c9b159c5ccf60936362ed1978a3525ac95a0d886f0a1c1d74",
          "blockNumber": "0x16d727a2",
          "transactionHash": "0x6ac3609fa96158ded36dd5901c8c065046d5aaa194dbad0813e8555f6048dd5a",
          "transactionIndex": "0x5",
          "logIndex": "0x16",
          "removed": false
        },
        {
          "address": "0x794a61358d6845594f94dc1db02a252b5b4814ad",
          "topics": [
            "0x2b627736bca15cd5381dcf80b0bf11fd197d01a037c52b927a881a10fb73ba61",
            "0x00000000000000000000000082af49447d8a07e3bd95bd0d56f35241523fbab1",
            "0x0000000000000000000000005958786f1ea187531a423bc960718564a45f48c0",
            "0x0000000000000000000000000000000000000000000000000000000000000000"
          ],
          "data": "0x0000000000000000000000005958786f1ea187531a423bc960718564a45f48c0000000000000000000000000000000000000000000000000000881540d980593",
          "blockHash": "0xeab067dfa4108a0c9b159c5ccf60936362ed1978a3525ac95a0d886f0a1c1d74",
          "blockNumber": "0x16d727a2",
          "transactionHash": "0x6ac3609fa96158ded36dd5901c8c065046d5aaa194dbad0813e8555f6048dd5a",
          "transactionIndex": "0x5",
          "logIndex": "0x17",
          "removed": false
        },
        {
          "address": "0xaf88d065e77c8cc2239327c5edb3a432268e5831",
          "topics": [
            "0x8c5be1e5ebec7d5bd14f71427d1e84f3dd0314c0f7b2291e5b200ac8c7c3b925",
            "0x0000000000000000000000005958786f1ea187531a423bc960718564a45f48c0",
            "0x000000000000000000000000794a61358d6845594f94dc1db02a252b5b4814ad"
          ],
          "data": "0x00000000000000000000000000000000000000000000000000000000005eee0a",
          "blockHash": "0xeab067dfa4108a0c9b159c5ccf60936362ed1978a3525ac95a0d886f0a1c1d74",
          "blockNumber": "0x16d727a2",
          "transactionHash": "0x6ac3609fa96158ded36dd5901c8c065046d5aaa194dbad0813e8555f6048dd5a",
          "transactionIndex": "0x5",
          "logIndex": "0x18",
          "removed": false
        },
        {
          "address": "0x794a61358d6845594f94dc1db02a252b5b4814ad",
          "topics": [
            "0x804c9b842b2748a22bb64b345453a3de7ca54a6ca45ce00d415894979e22897a",
            "0x000000000000000000000000af88d065e77c8cc2239327c5edb3a432268e5831"
          ],
          "data": "0x0000000000000000000000000000000000000000002375aafc6f52ed315b5d3d00000000000000000000000000000000000000000000000000000000000000000000000000000000000000000000000000000000003084009d7cf1897e9a5c49000000000000000000000000000000000000000003b4fad074ed7ed79fde2fac000000000000000000000000000000000000000003dc0622afa59fee1c4dd8b5",
          "blockHash": "0xeab067dfa4108a0c9b159c5ccf60936362ed1978a3525ac95a0d886f0a1c1d74",
          "blockNumber": "0x16d727a2",
          "transactionHash": "0x6ac3609fa96158ded36dd5901c8c065046d5aaa194dbad0813e8555f6048dd5a",
          "transactionIndex": "0x5",
          "logIndex": "0x19",
          "removed": false
        },
        {
          "address": "0xaf88d065e77c8cc2239327c5edb3a432268e5831",
          "topics": [
            "0xddf252ad1be2c89b69c2b068fc378daa952ba7f163c4a11628f55a4df523b3ef",
            "0x0000000000000000000000005958786f1ea187531a423bc960718564a45f48c0",
            "0x000000000000000000000000724dc807b04555b71ed48a6896b6f41593b8c637"
          ],
          "data": "0x00000000000000000000000000000000000000000000000000000000005eee0a",
          "blockHash": "0xeab067dfa4108a0c9b159c5ccf60936362ed1978a3525ac95a0d886f0a1c1d74",
          "blockNumber": "0x16d727a2",
          "transactionHash": "0x6ac3609fa96158ded36dd5901c8c065046d5aaa194dbad0813e8555f6048dd5a",
          "transactionIndex": "0x5",
          "logIndex": "0x1a",
          "removed": false
        },
        {
          "address": "0x929ec64c34a17401f460460d4b9390518e5b473e",
          "topics": [
            "0x3303facd24627943a92e9dc87cfbb34b15c49b726eec3ad3487c16be9ab8efe8",
            "0x000000000000000000000000724dc807b04555b71ed48a6896b6f41593b8c637",
            "0x000000000000000000000000912ce59144191c1204e64559fe8253a0e49e6548",
            "0x0000000000000000000000005958786f1ea187531a423bc960718564a45f48c0"
          ],
          "data": "0x0000000000000000000000000000000000000000000000000008c8630b7c7c550000000000000000000000000000000000000000000000000008c8630b7c7c550000000000000000000000000000000000000000000000000000000000000000",
          "blockHash": "0xeab067dfa4108a0c9b159c5ccf60936362ed1978a3525ac95a0d886f0a1c1d74",
          "blockNumber": "0x16d727a2",
          "transactionHash": "0x6ac3609fa96158ded36dd5901c8c065046d5aaa194dbad0813e8555f6048dd5a",
          "transactionIndex": "0x5",
          "logIndex": "0x1b",
          "removed": false
        },
        {
          "address": "0x724dc807b04555b71ed48a6896b6f41593b8c637",
          "topics": [
            "0xddf252ad1be2c89b69c2b068fc378daa952ba7f163c4a11628f55a4df523b3ef",
            "0x0000000000000000000000000000000000000000000000000000000000000000",
            "0x0000000000000000000000005958786f1ea187531a423bc960718564a45f48c0"
          ],
          "data": "0x00000000000000000000000000000000000000000000000000000000005eee09",
          "blockHash": "0xeab067dfa4108a0c9b159c5ccf60936362ed1978a3525ac95a0d886f0a1c1d74",
          "blockNumber": "0x16d727a2",
          "transactionHash": "0x6ac3609fa96158ded36dd5901c8c065046d5aaa194dbad0813e8555f6048dd5a",
          "transactionIndex": "0x5",
          "logIndex": "0x1c",
          "removed": false
        },
        {
          "address": "0x724dc807b04555b71ed48a6896b6f41593b8c637",
          "topics": [
            "0x458f5fa412d0f69b08dd84872b0215675cc67bc1d5b6fd93300a1c3878b86196",
            "0x0000000000000000000000005958786f1ea187531a423bc960718564a45f48c0",
            "0x0000000000000000000000005958786f1ea187531a423bc960718564a45f48c0"
          ],
          "data": "0x00000000000000000000000000000000000000000000000000000000005eee090000000000000000000000000000000000000000000000000000000000000000000000000000000000000000000000000000000003b4fad074ed7ed79fde2fac",
          "blockHash": "0xeab067dfa4108a0c9b159c5ccf60936362ed1978a3525ac95a0d886f0a1c1d74",
          "blockNumber": "0x16d727a2",
          "transactionHash": "0x6ac3609fa96158ded36dd5901c8c065046d5aaa194dbad0813e8555f6048dd5a",
          "transactionIndex": "0x5",
          "logIndex": "0x1d",
          "removed": false
        },
        {
          "address": "0x794a61358d6845594f94dc1db02a252b5b4814ad",
          "topics": [
            "0x00058a56ea94653cdf4f152d227ace22d4c00ad99e2a43f58cb7d9e3feb295f2",
            "0x000000000000000000000000af88d065e77c8cc2239327c5edb3a432268e5831",
            "0x0000000000000000000000005958786f1ea187531a423bc960718564a45f48c0"
          ],
          "data": "0x",
          "blockHash": "0xeab067dfa4108a0c9b159c5ccf60936362ed1978a3525ac95a0d886f0a1c1d74",
          "blockNumber": "0x16d727a2",
          "transactionHash": "0x6ac3609fa96158ded36dd5901c8c065046d5aaa194dbad0813e8555f6048dd5a",
          "transactionIndex": "0x5",
          "logIndex": "0x1e",
          "removed": false
        },
        {
          "address": "0x794a61358d6845594f94dc1db02a252b5b4814ad",
          "topics": [
            "0x2b627736bca15cd5381dcf80b0bf11fd197d01a037c52b927a881a10fb73ba61",
            "0x000000000000000000000000af88d065e77c8cc2239327c5edb3a432268e5831",
            "0x0000000000000000000000005958786f1ea187531a423bc960718564a45f48c0",
            "0x0000000000000000000000000000000000000000000000000000000000000000"
          ],
          "data": "0x0000000000000000000000005958786f1ea187531a423bc960718564a45f48c000000000000000000000000000000000000000000000000000000000005eee0a",
          "blockHash": "0xeab067dfa4108a0c9b159c5ccf60936362ed1978a3525ac95a0d886f0a1c1d74",
          "blockNumber": "0x16d727a2",
          "transactionHash": "0x6ac3609fa96158ded36dd5901c8c065046d5aaa194dbad0813e8555f6048dd5a",
          "transactionIndex": "0x5",
          "logIndex": "0x1f",
          "removed": false
        },
        {
          "address": "0xaf88d065e77c8cc2239327c5edb3a432268e5831",
          "topics": [
            "0xddf252ad1be2c89b69c2b068fc378daa952ba7f163c4a11628f55a4df523b3ef",
            "0x000000000000000000000000a14bb91455e3b70d2d4f59a0d3cbf35d939308fc",
            "0x000000000000000000000000360e68faccca8ca495c1b759fd9eee466db9fb32"
          ],
          "data": "0x000000000000000000000000000000000000000000000000000000000017bb82",
          "blockHash": "0xeab067dfa4108a0c9b159c5ccf60936362ed1978a3525ac95a0d886f0a1c1d74",
          "blockNumber": "0x16d727a2",
          "transactionHash": "0x6ac3609fa96158ded36dd5901c8c065046d5aaa194dbad0813e8555f6048dd5a",
          "transactionIndex": "0x5",
          "logIndex": "0x20",
          "removed": false
        },
        {
          "address": "0x0c84331e39d6658cd6e6b9ba04736cc4c4734351",
          "topics": [
            "0xddf252ad1be2c89b69c2b068fc378daa952ba7f163c4a11628f55a4df523b3ef",
            "0x0000000000000000000000000000000000000000000000000000000000000000",
            "0x0000000000000000000000005958786f1ea187531a423bc960718564a45f48c0"
          ],
          "data": "0x000000000000000000000000000000000000000000000000000660ff0a320430",
          "blockHash": "0xeab067dfa4108a0c9b159c5ccf60936362ed1978a3525ac95a0d886f0a1c1d74",
          "blockNumber": "0x16d727a2",
          "transactionHash": "0x6ac3609fa96158ded36dd5901c8c065046d5aaa194dbad0813e8555f6048dd5a",
          "transactionIndex": "0x5",
          "logIndex": "0x21",
          "removed": false
        },
        {
          "address": "0x0c84331e39d6658cd6e6b9ba04736cc4c4734351",
          "topics": [
            "0x458f5fa412d0f69b08dd84872b0215675cc67bc1d5b6fd93300a1c3878b86196",
            "0x0000000000000000000000005958786f1ea187531a423bc960718564a45f48c0",
            "0x0000000000000000000000005958786f1ea187531a423bc960718564a45f48c0"
          ],
          "data": "0x000000000000000000000000000000000000000000000000000660ff0a32043000000000000000000000000000000000000000000000000000000000000000000000000000000000000000000000000000000000038cd8bfdd1eee7b88f2c1d9",
          "blockHash": "0xeab067dfa4108a0c9b159c5ccf60936362ed1978a3525ac95a0d886f0a1c1d74",
          "blockNumber": "0x16d727a2",
          "transactionHash": "0x6ac3609fa96158ded36dd5901c8c065046d5aaa194dbad0813e8555f6048dd5a",
          "transactionIndex": "0x5",
          "logIndex": "0x22",
          "removed": false
        },
        {
          "address": "0x794a61358d6845594f94dc1db02a252b5b4814ad",
          "topics": [
            "0x804c9b842b2748a22bb64b345453a3de7ca54a6ca45ce00d415894979e22897a",
            "0x00000000000000000000000082af49447d8a07e3bd95bd0d56f35241523fbab1"
          ],
          "data": "0x0000000000000000000000000000000000000000000f6892d6a7ceebc490b18600000000000000000000000000000000000000000000000000000000000000000000000000000000000000000000000000000000001495e9e7010ae141d9ad96000000000000000000000000000000000000000003658d62299173b857ce7f750000000000000000000000000000000000000000038cd8bfdd1eee7b88f2c1d9",
          "blockHash": "0xeab067dfa4108a0c9b159c5ccf60936362ed1978a3525ac95a0d886f0a1c1d74",
          "blockNumber": "0x16d727a2",
          "transactionHash": "0x6ac3609fa96158ded36dd5901c8c065046d5aaa194dbad0813e8555f6048dd5a",
          "transactionIndex": "0x5",
          "logIndex": "0x23",
          "removed": false
        },
        {
          "address": "0x82af49447d8a07e3bd95bd0d56f35241523fbab1",
          "topics": [
            "0xddf252ad1be2c89b69c2b068fc378daa952ba7f163c4a11628f55a4df523b3ef",
            "0x000000000000000000000000e50fa9b3c56ffb159cb0fca61f5c9d750e8128c8",
            "0x0000000000000000000000005958786f1ea187531a423bc960718564a45f48c0"
          ],
          "data": "0x000000000000000000000000000000000000000000000000000660ff0a32042f",
          "blockHash": "0xeab067dfa4108a0c9b159c5ccf60936362ed1978a3525ac95a0d886f0a1c1d74",
          "blockNumber": "0x16d727a2",
          "transactionHash": "0x6ac3609fa96158ded36dd5901c8c065046d5aaa194dbad0813e8555f6048dd5a",
          "transactionIndex": "0x5",
          "logIndex": "0x24",
          "removed": false
        },
        {
          "address": "0x794a61358d6845594f94dc1db02a252b5b4814ad",
          "topics": [
            "0xb3d084820fb1a9decffb176436bd02558d15fac9b0ddfed8c465bc7359d7dce0",
            "0x00000000000000000000000082af49447d8a07e3bd95bd0d56f35241523fbab1",
            "0x0000000000000000000000005958786f1ea187531a423bc960718564a45f48c0",
            "0x0000000000000000000000000000000000000000000000000000000000000000"
          ],
          "data": "0x0000000000000000000000005958786f1ea187531a423bc960718564a45f48c0000000000000000000000000000000000000000000000000000660ff0a32042f00000000000000000000000000000000000000000000000000000000000000020000000000000000000000000000000000000000001495e9e7010ae141d9ad96",
          "blockHash": "0xeab067dfa4108a0c9b159c5ccf60936362ed1978a3525ac95a0d886f0a1c1d74",
          "blockNumber": "0x16d727a2",
          "transactionHash": "0x6ac3609fa96158ded36dd5901c8c065046d5aaa194dbad0813e8555f6048dd5a",
          "transactionIndex": "0x5",
          "logIndex": "0x25",
          "removed": false
        },
        {
          "address": "0x82af49447d8a07e3bd95bd0d56f35241523fbab1",
          "topics": [
            "0xddf252ad1be2c89b69c2b068fc378daa952ba7f163c4a11628f55a4df523b3ef",
            "0x0000000000000000000000005958786f1ea187531a423bc960718564a45f48c0",
            "0x0000000000000000000000000000000000000000000000000000000000000000"
          ],
          "data": "0x000000000000000000000000000000000000000000000000000660ff0a32042f",
          "blockHash": "0xeab067dfa4108a0c9b159c5ccf60936362ed1978a3525ac95a0d886f0a1c1d74",
          "blockNumber": "0x16d727a2",
          "transactionHash": "0x6ac3609fa96158ded36dd5901c8c065046d5aaa194dbad0813e8555f6048dd5a",
          "transactionIndex": "0x5",
          "logIndex": "0x26",
          "removed": false
        },
        {
          "address": "0xf611aeb5013fd2c0511c9cd55c7dc5c1140741a6",
          "topics": [
            "0xddf252ad1be2c89b69c2b068fc378daa952ba7f163c4a11628f55a4df523b3ef",
            "0x0000000000000000000000000000000000000000000000000000000000000000",
            "0x0000000000000000000000005958786f1ea187531a423bc960718564a45f48c0"
          ],
          "data": "0x0000000000000000000000000000000000000000000000000000000000473289",
          "blockHash": "0xeab067dfa4108a0c9b159c5ccf60936362ed1978a3525ac95a0d886f0a1c1d74",
          "blockNumber": "0x16d727a2",
          "transactionHash": "0x6ac3609fa96158ded36dd5901c8c065046d5aaa194dbad0813e8555f6048dd5a",
          "transactionIndex": "0x5",
          "logIndex": "0x27",
          "removed": false
        },
        {
          "address": "0xf611aeb5013fd2c0511c9cd55c7dc5c1140741a6",
          "topics": [
            "0x458f5fa412d0f69b08dd84872b0215675cc67bc1d5b6fd93300a1c3878b86196",
            "0x0000000000000000000000005958786f1ea187531a423bc960718564a45f48c0",
            "0x0000000000000000000000005958786f1ea187531a423bc960718564a45f48c0"
          ],
          "data": "0x00000000000000000000000000000000000000000000000000000000004732890000000000000000000000000000000000000000000000000000000000000000000000000000000000000000000000000000000003dc0622afa59fee1c4dd8b5",
          "blockHash": "0xeab067dfa4108a0c9b159c5ccf60936362ed1978a3525ac95a0d886f0a1c1d74",
          "blockNumber": "0x16d727a2",
          "transactionHash": "0x6ac3609fa96158ded36dd5901c8c065046d5aaa194dbad0813e8555f6048dd5a",
          "transactionIndex": "0x5",
          "logIndex": "0x28",
          "removed": false
        },
        {
          "address": "0x794a61358d6845594f94dc1db02a252b5b4814ad",
          "topics": [
            "0x804c9b842b2748a22bb64b345453a3de7ca54a6ca45ce00d415894979e22897a",
            "0x000000000000000000000000af88d065e77c8cc2239327c5edb3a432268e5831"
          ],
          "data": "0x0000000000000000000000000000000000000000002375ab138b85541185964d0000000000000000000000000000000000000000000000000000000000000000000000000000000000000000000000000000000000308400ad4c317a82256945000000000000000000000000000000000000000003b4fad074ed7ed79fde2fac000000000000000000000000000000000000000003dc0622afa59fee1c4dd8b5",
          "blockHash": "0xeab067dfa4108a0c9b159c5ccf60936362ed1978a3525ac95a0d886f0a1c1d74",
          "blockNumber": "0x16d727a2",
          "transactionHash": "0x6ac3609fa96158ded36dd5901c8c065046d5aaa194dbad0813e8555f6048dd5a",
          "transactionIndex": "0x5",
          "logIndex": "0x29",
          "removed": false
        },
        {
          "address": "0xaf88d065e77c8cc2239327c5edb3a432268e5831",
          "topics": [
            "0xddf252ad1be2c89b69c2b068fc378daa952ba7f163c4a11628f55a4df523b3ef",
            "0x000000000000000000000000724dc807b04555b71ed48a6896b6f41593b8c637",
            "0x0000000000000000000000005958786f1ea187531a423bc960718564a45f48c0"
          ],
          "data": "0x0000000000000000000000000000000000000000000000000000000000473288",
          "blockHash": "0xeab067dfa4108a0c9b159c5ccf60936362ed1978a3525ac95a0d886f0a1c1d74",
          "blockNumber": "0x16d727a2",
          "transactionHash": "0x6ac3609fa96158ded36dd5901c8c065046d5aaa194dbad0813e8555f6048dd5a",
          "transactionIndex": "0x5",
          "logIndex": "0x2a",
          "removed": false
        },
        {
          "address": "0x794a61358d6845594f94dc1db02a252b5b4814ad",
          "topics": [
            "0xb3d084820fb1a9decffb176436bd02558d15fac9b0ddfed8c465bc7359d7dce0",
            "0x000000000000000000000000af88d065e77c8cc2239327c5edb3a432268e5831",
            "0x0000000000000000000000005958786f1ea187531a423bc960718564a45f48c0",
            "0x0000000000000000000000000000000000000000000000000000000000000000"
          ],
          "data": "0x0000000000000000000000005958786f1ea187531a423bc960718564a45f48c000000000000000000000000000000000000000000000000000000000004732880000000000000000000000000000000000000000000000000000000000000002000000000000000000000000000000000000000000308400ad4c317a82256945",
          "blockHash": "0xeab067dfa4108a0c9b159c5ccf60936362ed1978a3525ac95a0d886f0a1c1d74",
          "blockNumber": "0x16d727a2",
          "transactionHash": "0x6ac3609fa96158ded36dd5901c8c065046d5aaa194dbad0813e8555f6048dd5a",
          "transactionIndex": "0x5",
          "logIndex": "0x2b",
          "removed": false
        },
        {
          "address": "0xaf88d065e77c8cc2239327c5edb3a432268e5831",
          "topics": [
            "0xddf252ad1be2c89b69c2b068fc378daa952ba7f163c4a11628f55a4df523b3ef",
            "0x0000000000000000000000005958786f1ea187531a423bc960718564a45f48c0",
            "0x000000000000000000000000360e68faccca8ca495c1b759fd9eee466db9fb32"
          ],
          "data": "0x0000000000000000000000000000000000000000000000000000000000473288",
          "blockHash": "0xeab067dfa4108a0c9b159c5ccf60936362ed1978a3525ac95a0d886f0a1c1d74",
          "blockNumber": "0x16d727a2",
          "transactionHash": "0x6ac3609fa96158ded36dd5901c8c065046d5aaa194dbad0813e8555f6048dd5a",
          "transactionIndex": "0x5",
          "logIndex": "0x2c",
          "removed": false
        },
        {
          "address": "0x5958786f1ea187531a423bc960718564a45f48c0",
          "topics": [
            "0xf208f4912782fd25c7f114ca3723a2d5dd6f3bcc3ac8db5af63baa85f711d5ec",
            "0xc43742cdec14b163fd9dfeca618ee85894bbc0db636f4a469cdcabbdbb3ca2ae",
            "0x000000000000000000000000a14bb91455e3b70d2d4f59a0d3cbf35d939308fc"
          ],
          "data": "0xfffffffffffffffffffffffffffffffffffffffffffffffffffffffffffd0bf2fffffffffffffffffffffffffffffffffffffffffffffffffffffffffffd0c240000000000000000000000000000000000000000000000000000122ed9cc0ea80000000000000000000000000000000000000000000000000000000000000004",
          "blockHash": "0xeab067dfa4108a0c9b159c5ccf60936362ed1978a3525ac95a0d886f0a1c1d74",
          "blockNumber": "0x16d727a2",
          "transactionHash": "0x6ac3609fa96158ded36dd5901c8c065046d5aaa194dbad0813e8555f6048dd5a",
          "transactionIndex": "0x5",
          "logIndex": "0x2d",
          "removed": false
        }
      ],
      "logsBloom": "0x000800000000080000800400000000000000000000000000000000000800000000000000000000001000005008040000000040010020040000002000002000800000002100000000000010080200020180000400000000008000000400008000100000000200001000000004000028000040005000000000000000100000000000000000811000080000010000000000000008000000000000040108200000000200040000000000000000000000010000000001010001020000000004000100020020a200000100040000204000000100000000000005000000000000002000001030000000a000020000000001200044400000002000800000400000010000",
      "type": "0x2",
      "transactionHash": "0x6ac3609fa96158ded36dd5901c8c065046d5aaa194dbad0813e8555f6048dd5a",
      "transactionIndex": "0x5",
      "blockHash": "0xeab067dfa4108a0c9b159c5ccf60936362ed1978a3525ac95a0d886f0a1c1d74",
      "blockNumber": "0x16d727a2",
      "gasUsed": "0x12f0ab",
      "effectiveGasPrice": "0xfe0358",
      "from": "0xa14bb91455e3b70d2d4f59a0d3cbf35d939308fc",
      "to": "0x5958786f1ea187531a423bc960718564a45f48c0",
      "contractAddress": null,
      "gasUsedForL1": "0x625",
      "l1BlockNumber": "0x165c5a6",
      "timeboosted": false
    }
  ],
  "libraries": [],
  "pending": [],
  "returns": {},
  "timestamp": 1758886848,
  "chain": 42161,
  "commit": "15297bc"
}