{
  "transactions": [
    {
      "hash": "0xb4b5b36569b1f3d4094dfbb01d27ac3096b3396fda249c56c9884d0c89e61c27",
      "transactionType": "CALL",
      "contractName": null,
      "contractAddress": "0x5958786f1ea187531a423bc960718564a45f48c0",
      "function": "borrow(address,uint256)",
      "arguments": [
        "0x82aF49447D8a07e3bd95BD0d56f35241523fBab1",
        "9000000000000"
      ],
      "transaction": {
        "from": "0xa14bb91455e3b70d2d4f59a0d3cbf35d939308fc",
        "to": "0x5958786f1ea187531a423bc960718564a45f48c0",
        "gas": "0x7122c",
        "value": "0x0",
        "input": "0x4b8a352900000000000000000000000082af49447d8a07e3bd95bd0d56f35241523fbab10000000000000000000000000000000000000000000000000000082f79cd9000",
        "nonce": "0xb9",
        "chainId": "0xa4b1"
      },
      "additionalContracts": [],
      "isFixedGasLimit": false
    }
  ],
  "receipts": [
    {
      "status": "0x1",
      "cumulativeGasUsed": "0x72af2",
      "logs": [
        {
          "address": "0x0c84331e39d6658cd6e6b9ba04736cc4c4734351",
          "topics": [
            "0xddf252ad1be2c89b69c2b068fc378daa952ba7f163c4a11628f55a4df523b3ef",
            "0x0000000000000000000000000000000000000000000000000000000000000000",
            "0x0000000000000000000000005958786f1ea187531a423bc960718564a45f48c0"
          ],
          "data": "0x0000000000000000000000000000000000000000000000000000082f9ad8c565",
          "blockHash": "0x9232740fdf16c74c4adefca10be38c9b3217edba904585ff3b8d55aa7634de20",
          "blockNumber": "0x16d72dbc",
          "transactionHash": "0xb4b5b36569b1f3d4094dfbb01d27ac3096b3396fda249c56c9884d0c89e61c27",
          "transactionIndex": "0x2",
          "logIndex": "0x3",
          "removed": false
        },
        {
          "address": "0x0c84331e39d6658cd6e6b9ba04736cc4c4734351",
          "topics": [
            "0x458f5fa412d0f69b08dd84872b0215675cc67bc1d5b6fd93300a1c3878b86196",
            "0x0000000000000000000000005958786f1ea187531a423bc960718564a45f48c0",
            "0x0000000000000000000000005958786f1ea187531a423bc960718564a45f48c0"
          ],
          "data": "0x0000000000000000000000000000000000000000000000000000082f9ad8c56500000000000000000000000000000000000000000000000000000000210b35640000000000000000000000000000000000000000038cd8d2411b5d8e69367be8",
          "blockHash": "0x9232740fdf16c74c4adefca10be38c9b3217edba904585ff3b8d55aa7634de20",
          "blockNumber": "0x16d72dbc",
          "transactionHash": "0xb4b5b36569b1f3d4094dfbb01d27ac3096b3396fda249c56c9884d0c89e61c27",
          "transactionIndex": "0x2",
          "logIndex": "0x4",
          "removed": false
        },
        {
          "address": "0x794a61358d6845594f94dc1db02a252b5b4814ad",
          "topics": [
            "0x804c9b842b2748a22bb64b345453a3de7ca54a6ca45ce00d415894979e22897a",
            "0x00000000000000000000000082af49447d8a07e3bd95bd0d56f35241523fbab1"
          ],
          "data": "0x0000000000000000000000000000000000000000000f6e69f453ce9975c26b6600000000000000000000000000000000000000000000000000000000000000000000000000000000000000000000000000000000001499d043733baba4914eba000000000000000000000000000000000000000003658d6f576f9169c6f58a3c0000000000000000000000000000000000000000038cd8d2411b5d8e69367be8",
          "blockHash": "0x9232740fdf16c74c4adefca10be38c9b3217edba904585ff3b8d55aa7634de20",
          "blockNumber": "0x16d72dbc",
          "transactionHash": "0xb4b5b36569b1f3d4094dfbb01d27ac3096b3396fda249c56c9884d0c89e61c27",
          "transactionIndex": "0x2",
          "logIndex": "0x5",
          "removed": false
        },
        {
          "address": "0x82af49447d8a07e3bd95bd0d56f35241523fbab1",
          "topics": [
            "0xddf252ad1be2c89b69c2b068fc378daa952ba7f163c4a11628f55a4df523b3ef",
            "0x000000000000000000000000e50fa9b3c56ffb159cb0fca61f5c9d750e8128c8",
            "0x0000000000000000000000005958786f1ea187531a423bc960718564a45f48c0"
          ],
          "data": "0x0000000000000000000000000000000000000000000000000000082f79cd9000",
          "blockHash": "0x9232740fdf16c74c4adefca10be38c9b3217edba904585ff3b8d55aa7634de20",
          "blockNumber": "0x16d72dbc",
          "transactionHash": "0xb4b5b36569b1f3d4094dfbb01d27ac3096b3396fda249c56c9884d0c89e61c27",
          "transactionIndex": "0x2",
          "logIndex": "0x6",
          "removed": false
        },
        {
          "address": "0x794a61358d6845594f94dc1db02a252b5b4814ad",
          "topics": [
            "0xb3d084820fb1a9decffb176436bd02558d15fac9b0ddfed8c465bc7359d7dce0",
            "0x00000000000000000000000082af49447d8a07e3bd95bd0d56f35241523fbab1",
            "0x0000000000000000000000005958786f1ea187531a423bc960718564a45f48c0",
            "0x0000000000000000000000000000000000000000000000000000000000000000"
          ],
          "data": "0x0000000000000000000000005958786f1ea187531a423bc960718564a45f48c00000000000000000000000000000000000000000000000000000082f79cd900000000000000000000000000000000000000000000000000000000000000000020000000000000000000000000000000000000000001499d043733baba4914eba",
          "blockHash": "0x9232740fdf16c74c4adefca10be38c9b3217edba904585ff3b8d55aa7634de20",
          "blockNumber": "0x16d72dbc",
          "transactionHash": "0xb4b5b36569b1f3d4094dfbb01d27ac3096b3396fda249c56c9884d0c89e61c27",
          "transactionIndex": "0x2",
          "logIndex": "0x7",
          "removed": false
        },
        {
          "address": "0x82af49447d8a07e3bd95bd0d56f35241523fbab1",
          "topics": [
            "0xddf252ad1be2c89b69c2b068fc378daa952ba7f163c4a11628f55a4df523b3ef",
            "0x0000000000000000000000005958786f1ea187531a423bc960718564a45f48c0",
            "0x000000000000000000000000a14bb91455e3b70d2d4f59a0d3cbf35d939308fc"
          ],
          "data": "0x0000000000000000000000000000000000000000000000000000082f79cd9000",
          "blockHash": "0x9232740fdf16c74c4adefca10be38c9b3217edba904585ff3b8d55aa7634de20",
          "blockNumber": "0x16d72dbc",
          "transactionHash": "0xb4b5b36569b1f3d4094dfbb01d27ac3096b3396fda249c56c9884d0c89e61c27",
          "transactionIndex": "0x2",
          "logIndex": "0x8",
          "removed": false
        }
      ],
      "logsBloom": "0x000800000000000000000400000000000000000000000000000000000000000000000000000000000000001000040000000040000000040000000000000000000000000100000000000010080000020180000400000000000000000400000000000000000200000000000004000008000000004000000000000000100000000000000000000000000000010000000000000000000000000000000100000000000000000000000000000000000000000000000001000000000000000000000100020000a2000001000000002000000000000000000000040000000000000020000000000000000000020000000001000000400000000000800000000000000000",
      "type": "0x2",
      "transactionHash": "0xb4b5b36569b1f3d4094dfbb01d27ac3096b3396fda249c56c9884d0c89e61c27",
      "transactionIndex": "0x2",
      "blockHash": "0x9232740fdf16c74c4adefca10be38c9b3217edba904585ff3b8d55aa7634de20",
      "blockNumber": "0x16d72dbc",
      "gasUsed": "0x51a61",
      "effectiveGasPrice": "0xb0c5e8",
      "from": "0xa14bb91455e3b70d2d4f59a0d3cbf35d939308fc",
      "to": "0x5958786f1ea187531a423bc960718564a45f48c0",
      "contractAddress": null,
      "gasUsedForL1": "0xa80",
      "l1BlockNumber": "0x165c5c6",
      "timeboosted": false
    }
  ],
  "libraries": [],
  "pending": [],
  "returns": {},
  "timestamp": 1758887239,
  "chain": 42161,
  "commit": "15297bc"
}