{
  "transactions": [
    {
      "hash": "0xe39b8b6fca13564600e7ff5dab15ca546c14da2e65be9c753afe382afdee1a7d",
      "transactionType": "CALL",
      "contractName": null,
      "contractAddress": "0x000000000022d473030f116ddee9f6b43ac78ba3",
      "function": "approve(address,address,uint160,uint48)",
      "arguments": [
        "0xaf88d065e77c8cC2239327C5EDb3A432268e5831",
        "0xA51afAFe0263b40EdaEf0Df8781eA9aa03E381a3",
        "1461501637330902918203684832716283019655932542975",
        "1758973305"
      ],
      "transaction": {
        "from": "0xa14bb91455e3b70d2d4f59a0d3cbf35d939308fc",
        "to": "0x000000000022d473030f116ddee9f6b43ac78ba3",
        "gas": "0xb127",
        "value": "0x0",
        "input": "0x87517c45000000000000000000000000af88d065e77c8cc2239327c5edb3a432268e5831000000000000000000000000a51afafe0263b40edaef0df8781ea9aa03e381a3000000000000000000000000ffffffffffffffffffffffffffffffffffffffff0000000000000000000000000000000000000000000000000000000068d7cd79",
        "nonce": "0xb5",
        "chainId": "0xa4b1"
      },
      "additionalContracts": [],
      "isFixedGasLimit": false
    },
    {
      "hash": "0x9473972ab6b8f6989f25bdff6760c19c640e1f9a15a1d41ad0ad28dacfe1f4bf",
      "transactionType": "CALL",
      "contractName": null,
      "contractAddress": "0xa51afafe0263b40edaef0df8781ea9aa03e381a3",
      "function": "execute(bytes,bytes[],uint256)",
      "arguments": [
        "0x10",
        "[0x000000000000000000000000000000000000000000000000000000000000004000000000000000000000000000000000000000000000000000000000000000800000000000000000000000000000000000000000000000000000000000000003060c0f00000000000000000000000000000000000000000000000000000000000000000000000000000000000000000000000000000000000000000000000003000000000000000000000000000000000000000000000000000000000000006000000000000000000000000000000000000000000000000000000000000001e00000000000000000000000000000000000000000000000000000000000000240000000000000000000000000000000000000000000000000000000000000016000000000000000000000000000000000000000000000000000000000000000200000000000000000000000000000000000000000000000000000000000000000000000000000000000000000af88d065e77c8cc2239327c5edb3a432268e58310000000000000000000000000000000000000000000000000000000000000bb800000000000000000000000000000000000000000000000000000000000000320000000000000000000000005958786f1ea187531a423bc960718564a45f48c0000000000000000000000000000000000000000000000000000000000000000000000000000000000000000000000000000000000000000000000000000f42400000000000000000000000000000000000000000000000000000000000000000000000000000000000000000000000000000000000000000000000000000012000000000000000000000000000000000000000000000000000000000000000000000000000000000000000000000000000000000000000000000000000000040000000000000000000000000af88d065e77c8cc2239327c5edb3a432268e583100000000000000000000000000000000000000000000000000000000000f4240000000000000000000000000000000000000000000000000000000000000004000000000000000000000000000000000000000000000000000000000000000000000000000000000000000000000000000000000000000000000000000000000]",
        "1758973305"
      ],
      "transaction": {
        "from": "0xa14bb91455e3b70d2d4f59a0d3cbf35d939308fc",
        "to": "0xa51afafe0263b40edaef0df8781ea9aa03e381a3",
        "gas": "0x108f61",
        "value": "0x0",
        "input": "0x3593564c000000000000000000000000000000000000000000000000000000000000006000000000000000000000000000000000000000000000000000000000000000a00000000000000000000000000000000000000000000000000000000068d7cd7900000000000000000000000000000000000000000000000000000000000000011000000000000000000000000000000000000000000000000000000000000000000000000000000000000000000000000000000000000000000000000000000100000000000000000000000000000000000000000000000000000000000000200000000000000000000000000000000000000000000000000000000000000340000000000000000000000000000000000000000000000000000000000000004000000000000000000000000000000000000000000000000000000000000000800000000000000000000000000000000000000000000000000000000000000003060c0f00000000000000000000000000000000000000000000000000000000000000000000000000000000000000000000000000000000000000000000000003000000000000000000000000000000000000000000000000000000000000006000000000000000000000000000000000000000000000000000000000000001e00000000000000000000000000000000000000000000000000000000000000240000000000000000000000000000000000000000000000000000000000000016000000000000000000000000000000000000000000000000000000000000000200000000000000000000000000000000000000000000000000000000000000000000000000000000000000000af88d065e77c8cc2239327c5edb3a432268e58310000000000000000000000000000000000000000000000000000000000000bb800000000000000000000000000000000000000000000000000000000000000320000000000000000000000005958786f1ea187531a423bc960718564a45f48c0000000000000000000000000000000000000000000000000000000000000000000000000000000000000000000000000000000000000000000000000000f42400000000000000000000000000000000000000000000000000000000000000000000000000000000000000000000000000000000000000000000000000000012000000000000000000000000000000000000000000000000000000000000000000000000000000000000000000000000000000000000000000000000000000040000000000000000000000000af88d065e77c8cc2239327c5edb3a432268e583100000000000000000000000000000000000000000000000000000000000f4240000000000000000000000000000000000000000000000000000000000000004000000000000000000000000000000000000000000000000000000000000000000000000000000000000000000000000000000000000000000000000000000000",
        "nonce": "0xb6",
        "chainId": "0xa4b1"
      },
      "additionalContracts": [],
      "isFixedGasLimit": false
    }
  ],
  "receipts": [
    {
      "status": "0x1",
      "cumulativeGasUsed": "0x65385",
      "logs": [
        {
          "address": "0x000000000022d473030f116ddee9f6b43ac78ba3",
          "topics": [
            "0xda9fa7c1b00402c17d0161b249b1ab8bbec047c5a52207b9c112deffd817036b",
            "0x000000000000000000000000a14bb91455e3b70d2d4f59a0d3cbf35d939308fc",
            "0x000000000000000000000000af88d065e77c8cc2239327c5edb3a432268e5831",
            "0x000000000000000000000000a51afafe0263b40edaef0df8781ea9aa03e381a3"
          ],
          "data": "0x000000000000000000000000ffffffffffffffffffffffffffffffffffffffff0000000000000000000000000000000000000000000000000000000068d7cd79",
          "blockHash": "0xe5d69c8f261552c7524b91407b31e583b210597eea3a5fa73c245199a7790d3e",
          "blockNumber": "0x16d728ac",
          "transactionHash": "0xe39b8b6fca13564600e7ff5dab15ca546c14da2e65be9c753afe382afdee1a7d",
          "transactionIndex": "0x2",
          "logIndex": "0xf",
          "removed": false
        }
      ],
      "logsBloom": "0x00010000000000000000040040000000000000000000000000000000000000000000000000000000100000000000000000000000000000000000000000080000000000000000000000000000000000040000000000000000000000000000000000000000000000000000000000000000000000400000000000000000000000000020000000000000000000000000000000000000000000000000000000000000000000000000000000000000000000000000000000000000000000080400000000000080000000000000000000000000000000000000000040000000000000000000000000000000000000000000000000000000002000000000000000000400",
      "type": "0x2",
      "transactionHash": "0xe39b8b6fca13564600e7ff5dab15ca546c14da2e65be9c753afe382afdee1a7d",
      "transactionIndex": "0x2",
      "blockHash": "0xe5d69c8f261552c7524b91407b31e583b210597eea3a5fa73c245199a7790d3e",
      "blockNumber": "0x16d728ac",
      "gasUsed": "0x8291",
      "effectiveGasPrice": "0xea40c0",
      "from": "0xa14bb91455e3b70d2d4f59a0d3cbf35d939308fc",
      "to": "0x000000000022d473030f116ddee9f6b43ac78ba3",
      "contractAddress": null,
      "gasUsedForL1": "0xaab",
      "l1BlockNumber": "0x165c5ab",
      "timeboosted": false
    },
    {
      "status": "0x1",
      "cumulativeGasUsed": "0xb6356",
      "logs": [
        {
          "address": "0x360e68faccca8ca495c1b759fd9eee466db9fb32",
          "topics": [
            "0xf208f4912782fd25c7f114ca3723a2d5dd6f3bcc3ac8db5af63baa85f711d5ec",
            "0x952a78006da51ed0660bc30190cbd2c18b7c79eaecfe4f426e7df52e95c90206",
            "0x0000000000000000000000005958786f1ea187531a423bc960718564a45f48c0"
          ],
          "data": "0xfffffffffffffffffffffffffffffffffffffffffffffffffffffffffffd0b8efffffffffffffffffffffffffffffffffffffffffffffffffffffffffffd0bc00000000000000000000000000000000000000000000000000000122ed9cc0ea80000000000000000000000000000000000000000000000000000000000000000",
          "blockHash": "0xabefbaee643b8503a41d1a5f30e37a7bf194a671ef7193c3db3aea8a77466e56",
          "blockNumber": "0x16d728b8",
          "transactionHash": "0x9473972ab6b8f6989f25bdff6760c19c640e1f9a15a1d41ad0ad28dacfe1f4bf",
          "transactionIndex": "0x1",
          "logIndex": "0x0",
          "removed": false
        },
        {
          "address": "0x360e68faccca8ca495c1b759fd9eee466db9fb32",
          "topics": [
            "0xf208f4912782fd25c7f114ca3723a2d5dd6f3bcc3ac8db5af63baa85f711d5ec",
            "0x952a78006da51ed0660bc30190cbd2c18b7c79eaecfe4f426e7df52e95c90206",
            "0x0000000000000000000000005958786f1ea187531a423bc960718564a45f48c0"
          ],
          "data": "0xfffffffffffffffffffffffffffffffffffffffffffffffffffffffffffd0bc0fffffffffffffffffffffffffffffffffffffffffffffffffffffffffffd0bf20000000000000000000000000000000000000000000000000000122ed9cc0ea80000000000000000000000000000000000000000000000000000000000000000",
          "blockHash": "0xabefbaee643b8503a41d1a5f30e37a7bf194a671ef7193c3db3aea8a77466e56",
          "blockNumber": "0x16d728b8",
          "transactionHash": "0x9473972ab6b8f6989f25bdff6760c19c640e1f9a15a1d41ad0ad28dacfe1f4bf",
          "transactionIndex": "0x1",
          "logIndex": "0x1",
          "removed": false
        },
        {
          "address": "0x360e68faccca8ca495c1b759fd9eee466db9fb32",
          "topics": [
            "0x40e9cecb9f5f1f1c5b9c97dec2917b7ee92e57ba5563708daca94dd84ad7112f",
            "0x952a78006da51ed0660bc30190cbd2c18b7c79eaecfe4f426e7df52e95c90206",
            "0x000000000000000000000000a51afafe0263b40edaef0df8781ea9aa03e381a3"
          ],
          "data": "0x0000000000000000000000000000000000000000000000000000e8b94182599efffffffffffffffffffffffffffffffffffffffffffffffffffffffffff0bdc00000000000000000000000000000000000000000000417a9379f21fc96fb65f50000000000000000000000000000000000000000000000000000122ed9cc0ea8fffffffffffffffffffffffffffffffffffffffffffffffffffffffffffd0b9d0000000000000000000000000000000000000000000000000000000000000bb8",
          "blockHash": "0xabefbaee643b8503a41d1a5f30e37a7bf194a671ef7193c3db3aea8a77466e56",
          "blockNumber": "0x16d728b8",
          "transactionHash": "0x9473972ab6b8f6989f25bdff6760c19c640e1f9a15a1d41ad0ad28dacfe1f4bf",
          "transactionIndex": "0x1",
          "logIndex": "0x2",
          "removed": false
        },
        {
          "address": "0x360e68faccca8ca495c1b759fd9eee466db9fb32",
          "topics": [
            "0xf208f4912782fd25c7f114ca3723a2d5dd6f3bcc3ac8db5af63baa85f711d5ec",
            "0x952a78006da51ed0660bc30190cbd2c18b7c79eaecfe4f426e7df52e95c90206",
            "0x0000000000000000000000005958786f1ea187531a423bc960718564a45f48c0"
          ],
          "data": "0xfffffffffffffffffffffffffffffffffffffffffffffffffffffffffffd0b8efffffffffffffffffffffffffffffffffffffffffffffffffffffffffffd0bc0ffffffffffffffffffffffffffffffffffffffffffffffffffffedd12633f1580000000000000000000000000000000000000000000000000000000000000000",
          "blockHash": "0xabefbaee643b8503a41d1a5f30e37a7bf194a671ef7193c3db3aea8a77466e56",
          "blockNumber": "0x16d728b8",
          "transactionHash": "0x9473972ab6b8f6989f25bdff6760c19c640e1f9a15a1d41ad0ad28dacfe1f4bf",
          "transactionIndex": "0x1",
          "logIndex": "0x3",
          "removed": false
        },
        {
          "address": "0x360e68faccca8ca495c1b759fd9eee466db9fb32",
          "topics": [
            "0xf208f4912782fd25c7f114ca3723a2d5dd6f3bcc3ac8db5af63baa85f711d5ec",
            "0x952a78006da51ed0660bc30190cbd2c18b7c79eaecfe4f426e7df52e95c90206",
            "0x0000000000000000000000005958786f1ea187531a423bc960718564a45f48c0"
          ],
          "data": "0xfffffffffffffffffffffffffffffffffffffffffffffffffffffffffffd0bc0fffffffffffffffffffffffffffffffffffffffffffffffffffffffffffd0bf2ffffffffffffffffffffffffffffffffffffffffffffffffffffedd12633f1580000000000000000000000000000000000000000000000000000000000000000",
          "blockHash": "0xabefbaee643b8503a41d1a5f30e37a7bf194a671ef7193c3db3aea8a77466e56",
          "blockNumber": "0x16d728b8",
          "transactionHash": "0x9473972ab6b8f6989f25bdff6760c19c640e1f9a15a1d41ad0ad28dacfe1f4bf",
          "transactionIndex": "0x1",
          "logIndex": "0x4",
          "removed": false
        },
        {
          "address": "0xaf88d065e77c8cc2239327c5edb3a432268e5831",
          "topics": [
            "0xddf252ad1be2c89b69c2b068fc378daa952ba7f163c4a11628f55a4df523b3ef",
            "0x000000000000000000000000360e68faccca8ca495c1b759fd9eee466db9fb32",
            "0x0000000000000000000000005958786f1ea187531a423bc960718564a45f48c0"
          ],
          "data": "0x00000000000000000000000000000000000000000000000000000000000f423e",
          "blockHash": "0xabefbaee643b8503a41d1a5f30e37a7bf194a671ef7193c3db3aea8a77466e56",
          "blockNumber": "0x16d728b8",
          "transactionHash": "0x9473972ab6b8f6989f25bdff6760c19c640e1f9a15a1d41ad0ad28dacfe1f4bf",
          "transactionIndex": "0x1",
          "logIndex": "0x5",
          "removed": false
        },
        {
          "address": "0xaf88d065e77c8cc2239327c5edb3a432268e5831",
          "topics": [
            "0x8c5be1e5ebec7d5bd14f71427d1e84f3dd0314c0f7b2291e5b200ac8c7c3b925",
            "0x0000000000000000000000005958786f1ea187531a423bc960718564a45f48c0",
            "0x000000000000000000000000794a61358d6845594f94dc1db02a252b5b4814ad"
          ],
          "data": "0x00000000000000000000000000000000000000000000000000000000000f423e",
          "blockHash": "0xabefbaee643b8503a41d1a5f30e37a7bf194a671ef7193c3db3aea8a77466e56",
          "blockNumber": "0x16d728b8",
          "transactionHash": "0x9473972ab6b8f6989f25bdff6760c19c640e1f9a15a1d41ad0ad28dacfe1f4bf",
          "transactionIndex": "0x1",
          "logIndex": "0x6",
          "removed": false
        },
        {
          "address": "0x794a61358d6845594f94dc1db02a252b5b4814ad",
          "topics": [
            "0x804c9b842b2748a22bb64b345453a3de7ca54a6ca45ce00d415894979e22897a",
            "0x000000000000000000000000af88d065e77c8cc2239327c5edb3a432268e5831"
          ],
          "data": "0x000000000000000000000000000000000000000000235ff9a1ff987c18e78837000000000000000000000000000000000000000000000000000000000000000000000000000000000000000000000000000000000030752750276370138e8489000000000000000000000000000000000000000003b4fad6311629a8e0ae1f6f000000000000000000000000000000000000000003dc062add85f96da8b73acd",
          "blockHash": "0xabefbaee643b8503a41d1a5f30e37a7bf194a671ef7193c3db3aea8a77466e56",
          "blockNumber": "0x16d728b8",
          "transactionHash": "0x9473972ab6b8f6989f25bdff6760c19c640e1f9a15a1d41ad0ad28dacfe1f4bf",
          "transactionIndex": "0x1",
          "logIndex": "0x7",
          "removed": false
        },
        {
          "address": "0xaf88d065e77c8cc2239327c5edb3a432268e5831",
          "topics": [
            "0xddf252ad1be2c89b69c2b068fc378daa952ba7f163c4a11628f55a4df523b3ef",
            "0x0000000000000000000000005958786f1ea187531a423bc960718564a45f48c0",
            "0x000000000000000000000000724dc807b04555b71ed48a6896b6f41593b8c637"
          ],
          "data": "0x00000000000000000000000000000000000000000000000000000000000f423e",
          "blockHash": "0xabefbaee643b8503a41d1a5f30e37a7bf194a671ef7193c3db3aea8a77466e56",
          "blockNumber": "0x16d728b8",
          "transactionHash": "0x9473972ab6b8f6989f25bdff6760c19c640e1f9a15a1d41ad0ad28dacfe1f4bf",
          "transactionIndex": "0x1",
          "logIndex": "0x8",
          "removed": false
        },
        {
          "address": "0x724dc807b04555b71ed48a6896b6f41593b8c637",
          "topics": [
            "0xddf252ad1be2c89b69c2b068fc378daa952ba7f163c4a11628f55a4df523b3ef",
            "0x0000000000000000000000000000000000000000000000000000000000000000",
            "0x0000000000000000000000005958786f1ea187531a423bc960718564a45f48c0"
          ],
          "data": "0x00000000000000000000000000000000000000000000000000000000000f423e",
          "blockHash": "0xabefbaee643b8503a41d1a5f30e37a7bf194a671ef7193c3db3aea8a77466e56",
          "blockNumber": "0x16d728b8",
          "transactionHash": "0x9473972ab6b8f6989f25bdff6760c19c640e1f9a15a1d41ad0ad28dacfe1f4bf",
          "transactionIndex": "0x1",
          "logIndex": "0x9",
          "removed": false
        },
        {
          "address": "0x724dc807b04555b71ed48a6896b6f41593b8c637",
          "topics": [
            "0x458f5fa412d0f69b08dd84872b0215675cc67bc1d5b6fd93300a1c3878b86196",
            "0x0000000000000000000000005958786f1ea187531a423bc960718564a45f48c0",
            "0x0000000000000000000000005958786f1ea187531a423bc960718564a45f48c0"
          ],
          "data": "0x00000000000000000000000000000000000000000000000000000000000f423e0000000000000000000000000000000000000000000000000000000000000001000000000000000000000000000000000000000003b4fad6311629a8e0ae1f6f",
          "blockHash": "0xabefbaee643b8503a41d1a5f30e37a7bf194a671ef7193c3db3aea8a77466e56",
          "blockNumber": "0x16d728b8",
          "transactionHash": "0x9473972ab6b8f6989f25bdff6760c19c640e1f9a15a1d41ad0ad28dacfe1f4bf",
          "transactionIndex": "0x1",
          "logIndex": "0xa",
          "removed": false
        },
        {
          "address": "0x794a61358d6845594f94dc1db02a252b5b4814ad",
          "topics": [
            "0x2b627736bca15cd5381dcf80b0bf11fd197d01a037c52b927a881a10fb73ba61",
            "0x000000000000000000000000af88d065e77c8cc2239327c5edb3a432268e5831",
            "0x0000000000000000000000005958786f1ea187531a423bc960718564a45f48c0",
            "0x0000000000000000000000000000000000000000000000000000000000000000"
          ],
          "data": "0x0000000000000000000000005958786f1ea187531a423bc960718564a45f48c000000000000000000000000000000000000000000000000000000000000f423e",
          "blockHash": "0xabefbaee643b8503a41d1a5f30e37a7bf194a671ef7193c3db3aea8a77466e56",
          "blockNumber": "0x16d728b8",
          "transactionHash": "0x9473972ab6b8f6989f25bdff6760c19c640e1f9a15a1d41ad0ad28dacfe1f4bf",
          "transactionIndex": "0x1",
          "logIndex": "0xb",
          "removed": false
        },
        {
          "address": "0x794a61358d6845594f94dc1db02a252b5b4814ad",
          "topics": [
            "0x804c9b842b2748a22bb64b345453a3de7ca54a6ca45ce00d415894979e22897a",
            "0x00000000000000000000000082af49447d8a07e3bd95bd0d56f35241523fbab1"
          ],
          "data": "0x0000000000000000000000000000000000000000000f6e668046f4e0535771f100000000000000000000000000000000000000000000000000000000000000000000000000000000000000000000000000000000001499cdf5584958703b8bf8000000000000000000000000000000000000000003658d6473f2d5537b2ba4720000000000000000000000000000000000000000038cd8c30fa2e4406f28f9d6",
          "blockHash": "0xabefbaee643b8503a41d1a5f30e37a7bf194a671ef7193c3db3aea8a77466e56",
          "blockNumber": "0x16d728b8",
          "transactionHash": "0x9473972ab6b8f6989f25bdff6760c19c640e1f9a15a1d41ad0ad28dacfe1f4bf",
          "transactionIndex": "0x1",
          "logIndex": "0xc",
          "removed": false
        },
        {
          "address": "0xe50fa9b3c56ffb159cb0fca61f5c9d750e8128c8",
          "topics": [
            "0xddf252ad1be2c89b69c2b068fc378daa952ba7f163c4a11628f55a4df523b3ef",
            "0x0000000000000000000000005958786f1ea187531a423bc960718564a45f48c0",
            "0x0000000000000000000000000000000000000000000000000000000000000000"
          ],
          "data": "0x0000000000000000000000000000000000000000000000000000e8b93bc61300",
          "blockHash": "0xabefbaee643b8503a41d1a5f30e37a7bf194a671ef7193c3db3aea8a77466e56",
          "blockNumber": "0x16d728b8",
          "transactionHash": "0x9473972ab6b8f6989f25bdff6760c19c640e1f9a15a1d41ad0ad28dacfe1f4bf",
          "transactionIndex": "0x1",
          "logIndex": "0xd",
          "removed": false
        },
        {
          "address": "0xe50fa9b3c56ffb159cb0fca61f5c9d750e8128c8",
          "topics": [
            "0x4cf25bc1d991c17529c25213d3cc0cda295eeaad5f13f361969b12ea48015f90",
            "0x0000000000000000000000005958786f1ea187531a423bc960718564a45f48c0",
            "0x0000000000000000000000005958786f1ea187531a423bc960718564a45f48c0"
          ],
          "data": "0x0000000000000000000000000000000000000000000000000000e8b93bc613000000000000000000000000000000000000000000000000000000000005bc46a1000000000000000000000000000000000000000003658d6473f2d5537b2ba472",
          "blockHash": "0xabefbaee643b8503a41d1a5f30e37a7bf194a671ef7193c3db3aea8a77466e56",
          "blockNumber": "0x16d728b8",
          "transactionHash": "0x9473972ab6b8f6989f25bdff6760c19c640e1f9a15a1d41ad0ad28dacfe1f4bf",
          "transactionIndex": "0x1",
          "logIndex": "0xe",
          "removed": false
        },
        {
          "address": "0x82af49447d8a07e3bd95bd0d56f35241523fbab1",
          "topics": [
            "0xddf252ad1be2c89b69c2b068fc378daa952ba7f163c4a11628f55a4df523b3ef",
            "0x000000000000000000000000e50fa9b3c56ffb159cb0fca61f5c9d750e8128c8",
            "0x0000000000000000000000005958786f1ea187531a423bc960718564a45f48c0"
          ],
          "data": "0x0000000000000000000000000000000000000000000000000000e8b9418259a1",
          "blockHash": "0xabefbaee643b8503a41d1a5f30e37a7bf194a671ef7193c3db3aea8a77466e56",
          "blockNumber": "0x16d728b8",
          "transactionHash": "0x9473972ab6b8f6989f25bdff6760c19c640e1f9a15a1d41ad0ad28dacfe1f4bf",
          "transactionIndex": "0x1",
          "logIndex": "0xf",
          "removed": false
        },
        {
          "address": "0x794a61358d6845594f94dc1db02a252b5b4814ad",
          "topics": [
            "0x3115d1449a7b732c986cba18244e897a450f61e1bb8d589cd2e69e6c8924f9f7",
            "0x00000000000000000000000082af49447d8a07e3bd95bd0d56f35241523fbab1",
            "0x0000000000000000000000005958786f1ea187531a423bc960718564a45f48c0",
            "0x0000000000000000000000005958786f1ea187531a423bc960718564a45f48c0"
          ],
          "data": "0x0000000000000000000000000000000000000000000000000000e8b9418259a1",
          "blockHash": "0xabefbaee643b8503a41d1a5f30e37a7bf194a671ef7193c3db3aea8a77466e56",
          "blockNumber": "0x16d728b8",
          "transactionHash": "0x9473972ab6b8f6989f25bdff6760c19c640e1f9a15a1d41ad0ad28dacfe1f4bf",
          "transactionIndex": "0x1",
          "logIndex": "0x10",
          "removed": false
        },
        {
          "address": "0x82af49447d8a07e3bd95bd0d56f35241523fbab1",
          "topics": [
            "0xddf252ad1be2c89b69c2b068fc378daa952ba7f163c4a11628f55a4df523b3ef",
            "0x0000000000000000000000005958786f1ea187531a423bc960718564a45f48c0",
            "0x0000000000000000000000005958786f1ea187531a423bc960718564a45f48c0"
          ],
          "data": "0x0000000000000000000000000000000000000000000000000000e8b9418259a1",
          "blockHash": "0xabefbaee643b8503a41d1a5f30e37a7bf194a671ef7193c3db3aea8a77466e56",
          "blockNumber": "0x16d728b8",
          "transactionHash": "0x9473972ab6b8f6989f25bdff6760c19c640e1f9a15a1d41ad0ad28dacfe1f4bf",
          "transactionIndex": "0x1",
          "logIndex": "0x11",
          "removed": false
        },
        {
          "address": "0x82af49447d8a07e3bd95bd0d56f35241523fbab1",
          "topics": [
            "0xddf252ad1be2c89b69c2b068fc378daa952ba7f163c4a11628f55a4df523b3ef",
            "0x0000000000000000000000005958786f1ea187531a423bc960718564a45f48c0",
            "0x0000000000000000000000000000000000000000000000000000000000000000"
          ],
          "data": "0x0000000000000000000000000000000000000000000000000000e8b9418259a1",
          "blockHash": "0xabefbaee643b8503a41d1a5f30e37a7bf194a671ef7193c3db3aea8a77466e56",
          "blockNumber": "0x16d728b8",
          "transactionHash": "0x9473972ab6b8f6989f25bdff6760c19c640e1f9a15a1d41ad0ad28dacfe1f4bf",
          "transactionIndex": "0x1",
          "logIndex": "0x12",
          "removed": false
        },
        {
          "address": "0xaf88d065e77c8cc2239327c5edb3a432268e5831",
          "topics": [
            "0xddf252ad1be2c89b69c2b068fc378daa952ba7f163c4a11628f55a4df523b3ef",
            "0x000000000000000000000000a14bb91455e3b70d2d4f59a0d3cbf35d939308fc",
            "0x000000000000000000000000360e68faccca8ca495c1b759fd9eee466db9fb32"
          ],
          "data": "0x00000000000000000000000000000000000000000000000000000000000f4240",
          "blockHash": "0xabefbaee643b8503a41d1a5f30e37a7bf194a671ef7193c3db3aea8a77466e56",
          "blockNumber": "0x16d728b8",
          "transactionHash": "0x9473972ab6b8f6989f25bdff6760c19c640e1f9a15a1d41ad0ad28dacfe1f4bf",
          "transactionIndex": "0x1",
          "logIndex": "0x13",
          "removed": false
        }
      ],
      "logsBloom": "0x100900000000000000000400400000080080000000000000000000000000000000000000000000001000005008040000000140010400040000000000002000000000000100000000010010080000020500000400000000208000000400000000000000000200000000000004000008000000005000000200000000100000000000000000010000000000010000000000000008000000000000040000200000000a00040000800000000000000000000000200001010001020000000004000100020020a2000000000400002040000001000004000000010000000000000020040010100000000000024000000000200044000000002000800000400000010008",
      "type": "0x2",
      "transactionHash": "0x9473972ab6b8f6989f25bdff6760c19c640e1f9a15a1d41ad0ad28dacfe1f4bf",
      "transactionIndex": "0x1",
      "blockHash": "0xabefbaee643b8503a41d1a5f30e37a7bf194a671ef7193c3db3aea8a77466e56",
      "blockNumber": "0x16d728b8",
      "gasUsed": "0xb6356",
      "effectiveGasPrice": "0xe5a510",
      "from": "0xa14bb91455e3b70d2d4f59a0d3cbf35d939308fc",
      "to": "0xa51afafe0263b40edaef0df8781ea9aa03e381a3",
      "contractAddress": null,
      "gasUsedForL1": "0x109d",
      "l1BlockNumber": "0x165c5ab",
      "timeboosted": false
    }
  ],
  "libraries": [],
  "pending": [],
  "returns": {},
  "timestamp": 1758886916,
  "chain": 42161,
  "commit": "15297bc"
}