{
  "transactions": [
    {
      "hash": "0xecc3a5d16be9de10fd38d9e615cc0c3ed5564c7e774bb03aa54f475f6901268f",
      "transactionType": "CALL",
      "contractName": null,
      "contractAddress": "0xa51afafe0263b40edaef0df8781ea9aa03e381a3",
      "function": "execute(bytes,bytes[],uint256)",
      "arguments": [
        "0x10",
        "[0x000000000000000000000000000000000000000000000000000000000000004000000000000000000000000000000000000000000000000000000000000000800000000000000000000000000000000000000000000000000000000000000003060c0f00000000000000000000000000000000000000000000000000000000000000000000000000000000000000000000000000000000000000000000000003000000000000000000000000000000000000000000000000000000000000006000000000000000000000000000000000000000000000000000000000000001e00000000000000000000000000000000000000000000000000000000000000240000000000000000000000000000000000000000000000000000000000000016000000000000000000000000000000000000000000000000000000000000000200000000000000000000000000000000000000000000000000000000000000000000000000000000000000000af88d065e77c8cc2239327c5edb3a432268e58310000000000000000000000000000000000000000000000000000000000000bb800000000000000000000000000000000000000000000000000000000000000320000000000000000000000003b7fc24025de469e70ad739a62f81ac3ac25c8c0000000000000000000000000000000000000000000000000000000000000000100000000000000000000000000000000000000000000000000005af3107a40000000000000000000000000000000000000000000000000000000000000000000000000000000000000000000000000000000000000000000000000000000012000000000000000000000000000000000000000000000000000000000000000000000000000000000000000000000000000000000000000000000000000000040000000000000000000000000000000000000000000000000000000000000000000000000000000000000000000000000000000000000000000005af3107a40000000000000000000000000000000000000000000000000000000000000000040000000000000000000000000af88d065e77c8cc2239327c5edb3a432268e58310000000000000000000000000000000000000000000000000000000000000000]",
        "1758583897"
      ],
      "transaction": {
        "from": "0xa14bb91455e3b70d2d4f59a0d3cbf35d939308fc",
        "to": "0xa51afafe0263b40edaef0df8781ea9aa03e381a3",
        "gas": "0x125530",
        "value": "0x5af3107a4000",
        "input": "0x3593564c000000000000000000000000000000000000000000000000000000000000006000000000000000000000000000000000000000000000000000000000000000a00000000000000000000000000000000000000000000000000000000068d1dc5900000000000000000000000000000000000000000000000000000000000000011000000000000000000000000000000000000000000000000000000000000000000000000000000000000000000000000000000000000000000000000000000100000000000000000000000000000000000000000000000000000000000000200000000000000000000000000000000000000000000000000000000000000340000000000000000000000000000000000000000000000000000000000000004000000000000000000000000000000000000000000000000000000000000000800000000000000000000000000000000000000000000000000000000000000003060c0f00000000000000000000000000000000000000000000000000000000000000000000000000000000000000000000000000000000000000000000000003000000000000000000000000000000000000000000000000000000000000006000000000000000000000000000000000000000000000000000000000000001e00000000000000000000000000000000000000000000000000000000000000240000000000000000000000000000000000000000000000000000000000000016000000000000000000000000000000000000000000000000000000000000000200000000000000000000000000000000000000000000000000000000000000000000000000000000000000000af88d065e77c8cc2239327c5edb3a432268e58310000000000000000000000000000000000000000000000000000000000000bb800000000000000000000000000000000000000000000000000000000000000320000000000000000000000003b7fc24025de469e70ad739a62f81ac3ac25c8c0000000000000000000000000000000000000000000000000000000000000000100000000000000000000000000000000000000000000000000005af3107a40000000000000000000000000000000000000000000000000000000000000000000000000000000000000000000000000000000000000000000000000000000012000000000000000000000000000000000000000000000000000000000000000000000000000000000000000000000000000000000000000000000000000000040000000000000000000000000000000000000000000000000000000000000000000000000000000000000000000000000000000000000000000005af3107a40000000000000000000000000000000000000000000000000000000000000000040000000000000000000000000af88d065e77c8cc2239327c5edb3a432268e58310000000000000000000000000000000000000000000000000000000000000000",
        "nonce": "0x9a",
        "chainId": "0xa4b1"
      },
      "additionalContracts": [],
      "isFixedGasLimit": false
    }
  ],
  "receipts": [
    {
      "status": "0x1",
      "cumulativeGasUsed": "0xd963a",
      "logs": [
        {
          "address": "0x360e68faccca8ca495c1b759fd9eee466db9fb32",
          "topics": [
            "0xf208f4912782fd25c7f114ca3723a2d5dd6f3bcc3ac8db5af63baa85f711d5ec",
            "0x498d28c321621b27990e7b601c4bf24909d39b77a2de72a79f6b4a966ff1c991",
            "0x0000000000000000000000003b7fc24025de469e70ad739a62f81ac3ac25c8c0"
          ],
          "data": "0xfffffffffffffffffffffffffffffffffffffffffffffffffffffffffffd0eaefffffffffffffffffffffffffffffffffffffffffffffffffffffffffffd0ee00000000000000000000000000000000000000000000000000000097667920ce80000000000000000000000000000000000000000000000000000000000000000",
          "blockHash": "0xf2412478e93c9a0699a3dd3b85702a93205e59b864040e8fd4497019372361bd",
          "blockNumber": "0x16c49c40",
          "transactionHash": "0xecc3a5d16be9de10fd38d9e615cc0c3ed5564c7e774bb03aa54f475f6901268f",
          "transactionIndex": "0x3",
          "logIndex": "0x4",
          "removed": false
        },
        {
          "address": "0x360e68faccca8ca495c1b759fd9eee466db9fb32",
          "topics": [
            "0xf208f4912782fd25c7f114ca3723a2d5dd6f3bcc3ac8db5af63baa85f711d5ec",
            "0x498d28c321621b27990e7b601c4bf24909d39b77a2de72a79f6b4a966ff1c991",
            "0x0000000000000000000000003b7fc24025de469e70ad739a62f81ac3ac25c8c0"
          ],
          "data": "0xfffffffffffffffffffffffffffffffffffffffffffffffffffffffffffd0e7cfffffffffffffffffffffffffffffffffffffffffffffffffffffffffffd0eae0000000000000000000000000000000000000000000000000000097667920ce80000000000000000000000000000000000000000000000000000000000000000",
          "blockHash": "0xf2412478e93c9a0699a3dd3b85702a93205e59b864040e8fd4497019372361bd",
          "blockNumber": "0x16c49c40",
          "transactionHash": "0xecc3a5d16be9de10fd38d9e615cc0c3ed5564c7e774bb03aa54f475f6901268f",
          "transactionIndex": "0x3",
          "logIndex": "0x5",
          "removed": false
        },
        {
          "address": "0x360e68faccca8ca495c1b759fd9eee466db9fb32",
          "topics": [
            "0x40e9cecb9f5f1f1c5b9c97dec2917b7ee92e57ba5563708daca94dd84ad7112f",
            "0x498d28c321621b27990e7b601c4bf24909d39b77a2de72a79f6b4a966ff1c991",
            "0x000000000000000000000000a51afafe0263b40edaef0df8781ea9aa03e381a3"
          ],
          "data": "0xffffffffffffffffffffffffffffffffffffffffffffffffffffa50cef85c00000000000000000000000000000000000000000000000000000000000000669790000000000000000000000000000000000000000000440ddc2d8b40f9bd176880000000000000000000000000000000000000000000000000000097667920ce8fffffffffffffffffffffffffffffffffffffffffffffffffffffffffffd0ea10000000000000000000000000000000000000000000000000000000000000bb8",
          "blockHash": "0xf2412478e93c9a0699a3dd3b85702a93205e59b864040e8fd4497019372361bd",
          "blockNumber": "0x16c49c40",
          "transactionHash": "0xecc3a5d16be9de10fd38d9e615cc0c3ed5564c7e774bb03aa54f475f6901268f",
          "transactionIndex": "0x3",
          "logIndex": "0x6",
          "removed": false
        },
        {
          "address": "0x360e68faccca8ca495c1b759fd9eee466db9fb32",
          "topics": [
            "0xf208f4912782fd25c7f114ca3723a2d5dd6f3bcc3ac8db5af63baa85f711d5ec",
            "0x498d28c321621b27990e7b601c4bf24909d39b77a2de72a79f6b4a966ff1c991",
            "0x0000000000000000000000003b7fc24025de469e70ad739a62f81ac3ac25c8c0"
          ],
          "data": "0xfffffffffffffffffffffffffffffffffffffffffffffffffffffffffffd0eaefffffffffffffffffffffffffffffffffffffffffffffffffffffffffffd0ee0fffffffffffffffffffffffffffffffffffffffffffffffffffff689986df3180000000000000000000000000000000000000000000000000000000000000000",
          "blockHash": "0xf2412478e93c9a0699a3dd3b85702a93205e59b864040e8fd4497019372361bd",
          "blockNumber": "0x16c49c40",
          "transactionHash": "0xecc3a5d16be9de10fd38d9e615cc0c3ed5564c7e774bb03aa54f475f6901268f",
          "transactionIndex": "0x3",
          "logIndex": "0x7",
          "removed": false
        },
        {
          "address": "0x360e68faccca8ca495c1b759fd9eee466db9fb32",
          "topics": [
            "0xf208f4912782fd25c7f114ca3723a2d5dd6f3bcc3ac8db5af63baa85f711d5ec",
            "0x498d28c321621b27990e7b601c4bf24909d39b77a2de72a79f6b4a966ff1c991",
            "0x0000000000000000000000003b7fc24025de469e70ad739a62f81ac3ac25c8c0"
          ],
          "data": "0xfffffffffffffffffffffffffffffffffffffffffffffffffffffffffffd0e7cfffffffffffffffffffffffffffffffffffffffffffffffffffffffffffd0eaefffffffffffffffffffffffffffffffffffffffffffffffffffff689986df3180000000000000000000000000000000000000000000000000000000000000000",
          "blockHash": "0xf2412478e93c9a0699a3dd3b85702a93205e59b864040e8fd4497019372361bd",
          "blockNumber": "0x16c49c40",
          "transactionHash": "0xecc3a5d16be9de10fd38d9e615cc0c3ed5564c7e774bb03aa54f475f6901268f",
          "transactionIndex": "0x3",
          "logIndex": "0x8",
          "removed": false
        },
        {
          "address": "0x82af49447d8a07e3bd95bd0d56f35241523fbab1",
          "topics": [
            "0xddf252ad1be2c89b69c2b068fc378daa952ba7f163c4a11628f55a4df523b3ef",
            "0x0000000000000000000000000000000000000000000000000000000000000000",
            "0x0000000000000000000000003b7fc24025de469e70ad739a62f81ac3ac25c8c0"
          ],
          "data": "0x00000000000000000000000000000000000000000000000000005af3107a3ffd",
          "blockHash": "0xf2412478e93c9a0699a3dd3b85702a93205e59b864040e8fd4497019372361bd",
          "blockNumber": "0x16c49c40",
          "transactionHash": "0xecc3a5d16be9de10fd38d9e615cc0c3ed5564c7e774bb03aa54f475f6901268f",
          "transactionIndex": "0x3",
          "logIndex": "0x9",
          "removed": false
        },
        {
          "address": "0x82af49447d8a07e3bd95bd0d56f35241523fbab1",
          "topics": [
            "0x8c5be1e5ebec7d5bd14f71427d1e84f3dd0314c0f7b2291e5b200ac8c7c3b925",
            "0x0000000000000000000000003b7fc24025de469e70ad739a62f81ac3ac25c8c0",
            "0x000000000000000000000000794a61358d6845594f94dc1db02a252b5b4814ad"
          ],
          "data": "0x00000000000000000000000000000000000000000000000000005af3107a3ffd",
          "blockHash": "0xf2412478e93c9a0699a3dd3b85702a93205e59b864040e8fd4497019372361bd",
          "blockNumber": "0x16c49c40",
          "transactionHash": "0xecc3a5d16be9de10fd38d9e615cc0c3ed5564c7e774bb03aa54f475f6901268f",
          "transactionIndex": "0x3",
          "logIndex": "0xa",
          "removed": false
        },
        {
          "address": "0x794a61358d6845594f94dc1db02a252b5b4814ad",
          "topics": [
            "0x804c9b842b2748a22bb64b345453a3de7ca54a6ca45ce00d415894979e22897a",
            "0x00000000000000000000000082af49447d8a07e3bd95bd0d56f35241523fbab1"
          ],
          "data": "0x0000000000000000000000000000000000000000000f3bfb5d67092ce819fb6b000000000000000000000000000000000000000000000000000000000000000000000000000000000000000000000000000000000014780abed61c4712c7de52000000000000000000000000000000000000000003656613bb2ab130893452f50000000000000000000000000000000000000000038ca17f1bdd98f62b7caeb8",
          "blockHash": "0xf2412478e93c9a0699a3dd3b85702a93205e59b864040e8fd4497019372361bd",
          "blockNumber": "0x16c49c40",
          "transactionHash": "0xecc3a5d16be9de10fd38d9e615cc0c3ed5564c7e774bb03aa54f475f6901268f",
          "transactionIndex": "0x3",
          "logIndex": "0xb",
          "removed": false
        },
        {
          "address": "0x82af49447d8a07e3bd95bd0d56f35241523fbab1",
          "topics": [
            "0xddf252ad1be2c89b69c2b068fc378daa952ba7f163c4a11628f55a4df523b3ef",
            "0x0000000000000000000000003b7fc24025de469e70ad739a62f81ac3ac25c8c0",
            "0x000000000000000000000000e50fa9b3c56ffb159cb0fca61f5c9d750e8128c8"
          ],
          "data": "0x00000000000000000000000000000000000000000000000000005af3107a3ffd",
          "blockHash": "0xf2412478e93c9a0699a3dd3b85702a93205e59b864040e8fd4497019372361bd",
          "blockNumber": "0x16c49c40",
          "transactionHash": "0xecc3a5d16be9de10fd38d9e615cc0c3ed5564c7e774bb03aa54f475f6901268f",
          "transactionIndex": "0x3",
          "logIndex": "0xc",
          "removed": false
        },
        {
          "address": "0x82af49447d8a07e3bd95bd0d56f35241523fbab1",
          "topics": [
            "0x8c5be1e5ebec7d5bd14f71427d1e84f3dd0314c0f7b2291e5b200ac8c7c3b925",
            "0x0000000000000000000000003b7fc24025de469e70ad739a62f81ac3ac25c8c0",
            "0x000000000000000000000000794a61358d6845594f94dc1db02a252b5b4814ad"
          ],
          "data": "0x0000000000000000000000000000000000000000000000000000000000000000",
          "blockHash": "0xf2412478e93c9a0699a3dd3b85702a93205e59b864040e8fd4497019372361bd",
          "blockNumber": "0x16c49c40",
          "transactionHash": "0xecc3a5d16be9de10fd38d9e615cc0c3ed5564c7e774bb03aa54f475f6901268f",
          "transactionIndex": "0x3",
          "logIndex": "0xd",
          "removed": false
        },
        {
          "address": "0xe50fa9b3c56ffb159cb0fca61f5c9d750e8128c8",
          "topics": [
            "0xddf252ad1be2c89b69c2b068fc378daa952ba7f163c4a11628f55a4df523b3ef",
            "0x0000000000000000000000000000000000000000000000000000000000000000",
            "0x0000000000000000000000003b7fc24025de469e70ad739a62f81ac3ac25c8c0"
          ],
          "data": "0x00000000000000000000000000000000000000000000000000005af31c49ba3d",
          "blockHash": "0xf2412478e93c9a0699a3dd3b85702a93205e59b864040e8fd4497019372361bd",
          "blockNumber": "0x16c49c40",
          "transactionHash": "0xecc3a5d16be9de10fd38d9e615cc0c3ed5564c7e774bb03aa54f475f6901268f",
          "transactionIndex": "0x3",
          "logIndex": "0xe",
          "removed": false
        },
        {
          "address": "0xe50fa9b3c56ffb159cb0fca61f5c9d750e8128c8",
          "topics": [
            "0x458f5fa412d0f69b08dd84872b0215675cc67bc1d5b6fd93300a1c3878b86196",
            "0x0000000000000000000000003b7fc24025de469e70ad739a62f81ac3ac25c8c0",
            "0x0000000000000000000000003b7fc24025de469e70ad739a62f81ac3ac25c8c0"
          ],
          "data": "0x00000000000000000000000000000000000000000000000000005af31c49ba3d000000000000000000000000000000000000000000000000000000000bcf7a40000000000000000000000000000000000000000003656613bb2ab130893452f5",
          "blockHash": "0xf2412478e93c9a0699a3dd3b85702a93205e59b864040e8fd4497019372361bd",
          "blockNumber": "0x16c49c40",
          "transactionHash": "0xecc3a5d16be9de10fd38d9e615cc0c3ed5564c7e774bb03aa54f475f6901268f",
          "transactionIndex": "0x3",
          "logIndex": "0xf",
          "removed": false
        },
        {
          "address": "0x794a61358d6845594f94dc1db02a252b5b4814ad",
          "topics": [
            "0x2b627736bca15cd5381dcf80b0bf11fd197d01a037c52b927a881a10fb73ba61",
            "0x00000000000000000000000082af49447d8a07e3bd95bd0d56f35241523fbab1",
            "0x0000000000000000000000003b7fc24025de469e70ad739a62f81ac3ac25c8c0",
            "0x0000000000000000000000000000000000000000000000000000000000000000"
          ],
          "data": "0x0000000000000000000000003b7fc24025de469e70ad739a62f81ac3ac25c8c000000000000000000000000000000000000000000000000000005af3107a3ffd",
          "blockHash": "0xf2412478e93c9a0699a3dd3b85702a93205e59b864040e8fd4497019372361bd",
          "blockNumber": "0x16c49c40",
          "transactionHash": "0xecc3a5d16be9de10fd38d9e615cc0c3ed5564c7e774bb03aa54f475f6901268f",
          "transactionIndex": "0x3",
          "logIndex": "0x10",
          "removed": false
        },
        {
          "address": "0x794a61358d6845594f94dc1db02a252b5b4814ad",
          "topics": [
            "0x804c9b842b2748a22bb64b345453a3de7ca54a6ca45ce00d415894979e22897a",
            "0x000000000000000000000000af88d065e77c8cc2239327c5edb3a432268e5831"
          ],
          "data": "0x00000000000000000000000000000000000000000022e6e8b36c19daf109535e00000000000000000000000000000000000000000000000000000000000000000000000000000000000000000000000000000000003021f44ef59fd00799bd43000000000000000000000000000000000000000003b498ccc372066f71f62356000000000000000000000000000000000000000003db791cdb3c089712196c68",
          "blockHash": "0xf2412478e93c9a0699a3dd3b85702a93205e59b864040e8fd4497019372361bd",
          "blockNumber": "0x16c49c40",
          "transactionHash": "0xecc3a5d16be9de10fd38d9e615cc0c3ed5564c7e774bb03aa54f475f6901268f",
          "transactionIndex": "0x3",
          "logIndex": "0x11",
          "removed": false
        },
        {
          "address": "0x724dc807b04555b71ed48a6896b6f41593b8c637",
          "topics": [
            "0xddf252ad1be2c89b69c2b068fc378daa952ba7f163c4a11628f55a4df523b3ef",
            "0x0000000000000000000000003b7fc24025de469e70ad739a62f81ac3ac25c8c0",
            "0x0000000000000000000000000000000000000000000000000000000000000000"
          ],
          "data": "0x0000000000000000000000000000000000000000000000000000000000066979",
          "blockHash": "0xf2412478e93c9a0699a3dd3b85702a93205e59b864040e8fd4497019372361bd",
          "blockNumber": "0x16c49c40",
          "transactionHash": "0xecc3a5d16be9de10fd38d9e615cc0c3ed5564c7e774bb03aa54f475f6901268f",
          "transactionIndex": "0x3",
          "logIndex": "0x12",
          "removed": false
        },
        {
          "address": "0x724dc807b04555b71ed48a6896b6f41593b8c637",
          "topics": [
            "0x4cf25bc1d991c17529c25213d3cc0cda295eeaad5f13f361969b12ea48015f90",
            "0x0000000000000000000000003b7fc24025de469e70ad739a62f81ac3ac25c8c0",
            "0x0000000000000000000000003b7fc24025de469e70ad739a62f81ac3ac25c8c0"
          ],
          "data": "0x00000000000000000000000000000000000000000000000000000000000669790000000000000000000000000000000000000000000000000000000000000002000000000000000000000000000000000000000003b498ccc372066f71f62356",
          "blockHash": "0xf2412478e93c9a0699a3dd3b85702a93205e59b864040e8fd4497019372361bd",
          "blockNumber": "0x16c49c40",
          "transactionHash": "0xecc3a5d16be9de10fd38d9e615cc0c3ed5564c7e774bb03aa54f475f6901268f",
          "transactionIndex": "0x3",
          "logIndex": "0x13",
          "removed": false
        },
        {
          "address": "0xaf88d065e77c8cc2239327c5edb3a432268e5831",
          "topics": [
            "0xddf252ad1be2c89b69c2b068fc378daa952ba7f163c4a11628f55a4df523b3ef",
            "0x000000000000000000000000724dc807b04555b71ed48a6896b6f41593b8c637",
            "0x0000000000000000000000003b7fc24025de469e70ad739a62f81ac3ac25c8c0"
          ],
          "data": "0x000000000000000000000000000000000000000000000000000000000006697b",
          "blockHash": "0xf2412478e93c9a0699a3dd3b85702a93205e59b864040e8fd4497019372361bd",
          "blockNumber": "0x16c49c40",
          "transactionHash": "0xecc3a5d16be9de10fd38d9e615cc0c3ed5564c7e774bb03aa54f475f6901268f",
          "transactionIndex": "0x3",
          "logIndex": "0x14",
          "removed": false
        },
        {
          "address": "0x794a61358d6845594f94dc1db02a252b5b4814ad",
          "topics": [
            "0x3115d1449a7b732c986cba18244e897a450f61e1bb8d589cd2e69e6c8924f9f7",
            "0x000000000000000000000000af88d065e77c8cc2239327c5edb3a432268e5831",
            "0x0000000000000000000000003b7fc24025de469e70ad739a62f81ac3ac25c8c0",
            "0x0000000000000000000000003b7fc24025de469e70ad739a62f81ac3ac25c8c0"
          ],
          "data": "0x000000000000000000000000000000000000000000000000000000000006697b",
          "blockHash": "0xf2412478e93c9a0699a3dd3b85702a93205e59b864040e8fd4497019372361bd",
          "blockNumber": "0x16c49c40",
          "transactionHash": "0xecc3a5d16be9de10fd38d9e615cc0c3ed5564c7e774bb03aa54f475f6901268f",
          "transactionIndex": "0x3",
          "logIndex": "0x15",
          "removed": false
        },
        {
          "address": "0xaf88d065e77c8cc2239327c5edb3a432268e5831",
          "topics": [
            "0xddf252ad1be2c89b69c2b068fc378daa952ba7f163c4a11628f55a4df523b3ef",
            "0x0000000000000000000000003b7fc24025de469e70ad739a62f81ac3ac25c8c0",
            "0x000000000000000000000000360e68faccca8ca495c1b759fd9eee466db9fb32"
          ],
          "data": "0x000000000000000000000000000000000000000000000000000000000006697b",
          "blockHash": "0xf2412478e93c9a0699a3dd3b85702a93205e59b864040e8fd4497019372361bd",
          "blockNumber": "0x16c49c40",
          "transactionHash": "0xecc3a5d16be9de10fd38d9e615cc0c3ed5564c7e774bb03aa54f475f6901268f",
          "transactionIndex": "0x3",
          "logIndex": "0x16",
          "removed": false
        },
        {
          "address": "0xaf88d065e77c8cc2239327c5edb3a432268e5831",
          "topics": [
            "0xddf252ad1be2c89b69c2b068fc378daa952ba7f163c4a11628f55a4df523b3ef",
            "0x000000000000000000000000360e68faccca8ca495c1b759fd9eee466db9fb32",
            "0x000000000000000000000000a14bb91455e3b70d2d4f59a0d3cbf35d939308fc"
          ],
          "data": "0x0000000000000000000000000000000000000000000000000000000000066979",
          "blockHash": "0xf2412478e93c9a0699a3dd3b85702a93205e59b864040e8fd4497019372361bd",
          "blockNumber": "0x16c49c40",
          "transactionHash": "0xecc3a5d16be9de10fd38d9e615cc0c3ed5564c7e774bb03aa54f475f6901268f",
          "transactionIndex": "0x3",
          "logIndex": "0x17",
          "removed": false
        }
      ],
      "logsBloom": "0x100900000000000000000400400000000080000000000000000000000000000000000000000000001000004018040000000140010400040000000000002000000000000100000000010010080000000500000400000000208000000400000000000000000200000000000004000008000000005000000200000000100000000000000000010000000000010000000000000008000000000000040000201000000200040000800000000000000000000000000000010001020000000004000100020020a2000000000400002040000001000004000000010000000000040020040010100000000000026010000000200044000000002000800000400000010008",
      "type": "0x2",
      "transactionHash": "0xecc3a5d16be9de10fd38d9e615cc0c3ed5564c7e774bb03aa54f475f6901268f",
      "transactionIndex": "0x3",
      "blockHash": "0xf2412478e93c9a0699a3dd3b85702a93205e59b864040e8fd4497019372361bd",
      "blockNumber": "0x16c49c40",
      "gasUsed": "0xae88f",
      "effectiveGasPrice": "0x989680",
      "from": "0xa14bb91455e3b70d2d4f59a0d3cbf35d939308fc",
      "to": "0xa51afafe0263b40edaef0df8781ea9aa03e381a3",
      "contractAddress": null,
      "gasUsedForL1": "0x7c3",
      "l1BlockNumber": "0x16563a6",
      "timeboosted": false
    }
  ],
  "libraries": [],
  "pending": [],
  "returns": {},
  "timestamp": 1758583855,
  "chain": 42161,
  "commit": "d0decf1"
}